:020000040800F2
:1000000000000220B9020008BF020008C302000875
:1000100035030008390300088103000800000000D0
:100020000000000000000000000000002122000885
:10003000CD03000800000000C122000825230008AD
:10004000E5030008E5030008E5030008E5030008F0
:10005000E5030008E5030008E5030008E5030008E0
:10006000E5030008E5030008E5030008E5030008D0
:10007000E5030008E5030008E5030008E5030008C0
:10008000E5030008E5030008E5030008E5030008B0
:10009000E5030008E5030008E5030008E5030008A0
:1000A000E5030008E5030008E5030008E503000890
:1000B000E5030008E5030008E5030008E503000880
:1000C000E5030008E5030008E5030008E503000870
:1000D000E5030008E5030008E5030008E503000860
:1000E000E5030008E5030008E5030008E503000850
:1000F000E5030008E5030008E5030008E503000840
:10010000E5030008E5030008E5030008E50300082F
:10011000E5030008E5030008E5030008E50300081F
:10012000E5030008E5030008E5030008E50300080F
:10013000E5030008E5030008E5030008E5030008FF
:10014000E5030008E5030008E5030008E5030008EF
:10015000E5030008E5030008E5030008E5030008DF
:10016000E5030008E5030008E5030008E5030008CF
:10017000E5030008E5030008E503000800000000AF
:10018000E5030008E503000800B583B001F090FA2C
:10019000384B394A1360394A1360394906E052F83E
:1001A000041B43F8041B9842F9D86146354B994229
:1001B00005D20A684B6801F10C0C8868F3E72E4BF6
:1001C0001A68314B9A4200D0FEE72C4B1A682F4B2D
:1001D0009A42F9D1274B2E4A13602E4A13602E4AB9
:1001E00000E002462D4B9A4209D2104650F8083BD7
:1001F00051689942F5D9002243F8042BF9E7244BC2
:100200001B6813B9234B1B6803B1FEE701F004FB25
:10021000694601A800F0D4FE214C224BE41AA41038
:10022000002504E01F4B53F8253098470135AC42B8
:10023000F8DC1D4C1D4BE41AA410002504E01B4BF8
:1002400053F8253098470135AC42F8DC0099019805
:1002500001F098FD0546164C164BE41AA41004E074
:10026000013C144B53F824309847002CF8DC284606
:1002700000F042FEBABADECA00000020880000206A
:10028000E8030008000400087856341232547698C7
:100290008C0000204C3001200004000810040008ED
:1002A00010040008100400081004000810040008DE
:1002B000100400081004000808B5FFF765FF00BE31
:1002C000FEE71EF0040F0CBFEFF30880EFF3098088
:1002D0007146414A10472DE9F04182B004460D466F
:1002E000124B5F6BD3F838809E6A1B6B13F0020FC2
:1002F00003D00E4BDB6A002B0BDB0D4801F0B4F88A
:10030000009543463A463146204601F0D7F800BEF4
:10031000FEE74BF6AB6101F04BF90028EDD0034B43
:100320004FF00042DA6202B0BDE8F08100ED00E07B
:10033000B45A000800BEFEE71EF0040F0CBFEFF336
:100340000880EFF309807146244A10472DE9F041F7
:1003500082B004460D46084B5F6BD3F838809E6A26
:10036000064801F081F8009543463A46314620465A
:1003700001F0A4F800BEFEE700ED00E0C45A00085A
:100380001EF0040F0CBFEFF30880EFF309807146F5
:10039000134A10472DE9F04182B004460D46084B40
:1003A0005F6BD3F838809E6A064801F05DF80095CF
:1003B00043463A463146204601F080F800BEFEE74B
:1003C00000ED00E0D05A000800BEFEE700BEFEE7E8
:1003D00000BEFEE770470000D70200084D0300088A
:0803E0009503000800BEFEE7D2
:1003E800705F0008000000208C000020705F00088B
:1003F80000000010000000108C0000205030012088
:080408000000001000000010CC
:1004100010B504460E4B1A784FF47A73B3FBF2F31F
:100420000C4A1068B0FBF3F000F09CF868B90F2C90
:1004300001D901200AE0002221464FF0FF3000F0F0
:100440004BF8054B1C60002000E0012010BD00BFF0
:10045000040000200C0000200800002008B50B4B11
:100460001A6842F400721A601A6842F480621A60D4
:100470001A6842F480721A60032000F00FF80F200F
:10048000FFF7C6FF01F060FD002008BD003C024000
:10049000014B1868704700BF9000002010B504465B
:1004A000C31E042B0FD80A4AD36823F4E0631B044D
:1004B0001B0C240204F4E064234343F0BF6343F4C1
:1004C0000033D36010BD9221024801F0ADF9EAE794
:1004D00000ED00E0DC58000870B505460C461646F5
:1004E0000F2A25D80F2C28D81B4BDB68C3F3022317
:1004F000C3F10702042A28BF0422191D062921D9A5
:10050000033B4FF0FF3101FA02F224EA02049C405F
:10051000994026EA010644EA0602002D14DB120186
:10052000D2B205F1604505F5614585F8002370BD3F
:10053000AA210A4801F078F9D4E7AB21074801F075
:1005400073F9D1E70023DCE705F00F051201D2B201
:10055000034B5A55EBE700BF00ED00E0DC58000804
:1005600014ED00E00138B0F1807F0BD24FF0E023B2
:100570005861054AF02182F8231000209861072273
:100580001A6170470120704700ED00E010B5044685
:10059000042800D040B9042C0CD04FF0E02213699D
:1005A00023F00403136110BD40F2C911054801F0A6
:1005B0003BF9F0E74FF0E022136943F004031361C5
:1005C000F1E700BFDC580008002800F05B8270B53E
:1005D00082B0044603680F2B39D8236813F0010F4B
:1005E0004DD063682BB1B3F5803F02D0B3F5A02F97
:1005F00032D1804B9B6803F00C03042B36D07D4B2B
:100600009B6803F00C03082B2BD06368B3F5803F85
:100610005FD0B3F5A02F62D0764B1A6822F48032F7
:100620001A601A6822F480221A606368002B60D076
:10063000FFF72EFF05466F4B1B6813F4003F1ED1DA
:10064000FFF726FF401B6428F5D9032021E2E821AB
:10065000694801F0E9F8C0E7ED21674801F0E4F8E6
:10066000C7E7644B5B6813F4800FCED0614B1B6807
:1006700013F4003F03D06368002B00F00582236869
:1006800013F0020F66D0E368012B41D823691F2BBA
:1006900044D8584B9B6813F00C0F4AD0554B9B68BD
:1006A00003F00C03082B3FD0E368002B77D0534BAB
:1006B00001221A60FFF7ECFE05464E4B1B6813F053
:1006C000020F63D1FFF7E4FE401B0228F5D9032097
:1006D000DFE1484A136843F480331360A5E7454BD4
:1006E0001A6842F480221A601A6842F480321A6052
:1006F0009BE7FFF7CDFE05463E4B1B6813F4003F1A
:10070000BDD0FFF7C5FE401B6428F5D90320C0E12A
:1007100040F21F11384801F087F8B7E74FF49071A5
:10072000354801F081F8B4E7324B5B6813F4800F71
:10073000BAD1304B1B6813F0020F03D0E368012BD2
:1007400040F0A4812B4A136823F0F803216943EA9F
:10075000C1031360236813F0080F51D06369012BA4
:100760002FD863699BB3254B0122C3F8802EFFF776
:100770008FFE05461F4B5B6F13F0020F40D1FFF752
:1007800087FE401B0228F5D9032082E1194A13682D
:1007900023F0F803216943EAC1031360DAE7174B3A
:1007A00000221A60FFF774FE0546124B1B6813F017
:1007B000020FCFD0FFF76CFE401B0228F5D90320B3
:1007C00067E14FF4B0710C4801F02EF8C9E70B4B0C
:1007D0000022C3F8802EFFF75BFE0546054B5B6FDA
:1007E00013F0020F0CD0FFF753FE401B0228F5D97F
:1007F00003204EE100380240105900080000474233
:10080000236813F0040F7CD0A368012B01D9052BBA
:1008100038D1A44B1B6C13F0805F39D100230193B6
:10082000A04B1A6C42F080521A641B6C03F0805388
:100830000193019B01259C4B1B6813F4807F29D0F9
:10084000A368012B3AD0052B3ED0964B1A6F22F0AD
:1008500001021A671A6F22F004021A67A368002BBC
:100860003CD0FFF715FE06468E4B1B6F13F0020FB0
:1008700045D1FFF70DFE801B41F288339842F3D932
:10088000032006E14FF4C671884800F0CDFFC0E7B1
:100890000025D0E7844A136843F480731360FFF7A0
:1008A000F7FD0646804B1B6813F4807FC8D1FFF725
:1008B000EFFD801B0228F5D90320EAE0794A136F87
:1008C00043F001031367C9E7764B1A6F42F0040245
:1008D0001A671A6F42F001021A67BFE7FFF7D8FDE7
:1008E0000646704B1B6F13F0020F08D0FFF7D0FDC8
:1008F000801B41F288339842F3D90320C9E0002DD0
:100900003ED1A369022B41D8A369002B00F0C0801F
:10091000644A926802F00C02082A00F09380022BCD
:100920007CD1E36913B1B3F5800F35D1236A3F2B36
:1009300038D8636A323BB3F5BF7F39D8A36A022B3C
:1009400008D0082B3AD84FF4A87222FA03F313F018
:10095000010F33D0E36A023B0D2B35D8544B0022F4
:100960001A66FFF795FD05464E4B1B6813F0007F96
:1009700030D0FFF78DFD401B0228F5D9032088E019
:10098000484A136C23F080531364BAE740F2CF1146
:10099000464800F049FFB7E74FF4EC71434800F0D8
:1009A00043FFC3E740F2D911404800F03DFFC0E7E4
:1009B0004FF4ED713D4800F037FFBFE740F2DB1127
:1009C0003A4800F031FFC5E74FF4EE71374800F0C8
:1009D0002BFFC3E7E369226A1343626A43EA821387
:1009E000A26A5208013A43EA0243E26A43EA026316
:1009F0002C4A53602E4B01221A66FFF749FD04462C
:100A0000284B1B6813F0007F06D1FFF741FD001B48
:100A10000228F5D903203CE000203AE0244B0022D4
:100A20001A66FFF735FD04461E4B1B6813F0007F66
:100A300006D0FFF72DFD001B0228F5D9032028E082
:100A4000002026E0012B26D0164B5B6803F48001C2
:100A5000E269914221D103F03F02216A8A421ED10C
:100A6000616A47F6C0721A408A4223D103F44032C9
:100A7000A16A8A4220D103F07063E26A93421DD1D9
:100A8000002006E001207047012002E0012000E084
:100A9000002002B070BD0120FBE70120F9E7012032
:100AA000F7E700BF0038024000700040105900080E
:100AB000000047420120ECE70120EAE70120E8E7D7
:100AC00008B5334B9B6803F00C03042B5BD0082B59
:100AD0005BD12F4B5A6802F03F025B6813F4800F22
:100AE0002CD02B4B5868C0F388104FEA401CBCEB4D
:100AF000000C6EEB0E0E4FEA8E1343EA9C634FEA36
:100B00008C11B1EB0C0163EB0E03DB0043EA517374
:100B1000C90011EB000C43F10003590200234FEA16
:100B20004C2041EADC5103F0B1F8194B5B68C3F388
:100B3000014301335B00B0FBF3F027E0144B58682E
:100B4000C0F388104FEA401CBCEB000C6EEB0E0E9D
:100B50004FEA8E1343EA9C634FEA8C11B1EB0C0110
:100B600063EB0E03DB0043EA5173C90011EB000C89
:100B700043F10003990200234FEA8C2041EA9C5183
:100B800003F084F8D1E7034800E0034808BD00BF44
:100B90000038024000127A000024F400002800F01F
:100BA000FA8070B50D4604460368013B0E2B30D821
:100BB000072D34D87C4B1B6803F00F03AB4208D2DF
:100BC000EBB2794A1370136803F00F03AB4240F0A5
:100BD000E480236813F0020F32D013F0040F04D026
:100BE000724A936843F4E0539360236813F0080F4C
:100BF00004D06E4A936843F460439360A368C3B122
:100C0000C02B16D049D8A02B13D00ED9B02B10D0A2
:100C100049E040F25121664800F006FEC8E740F284
:100C20005221634800F000FEC4E7802B01D0902BD6
:100C300039D15E4A936823F0F003A1680B439360B7
:100C4000236813F0010F48D06368032B31D8636821
:100C5000012B34D09A1E012A38D9544A126812F056
:100C6000020F00F09C8051498A6822F0030213436E
:100C70008B60FFF70DFC06464C4B9B6803F00C03A2
:100C80006268B3EB820F28D0FFF702FC801B41F2B1
:100C900088339842F0D9032070E0E02BC9D0F02BC4
:100CA000C7D0D02BC5D040F27521414800F0BCFD23
:100CB000BFE74FF41F713E4800F0B6FDC7E73B4A5F
:100CC000126812F4003FCED1012057E0374A126873
:100CD00012F0007FC7D1012050E0334B1B6803F0B6
:100CE0000F03AB4207D9EAB22F4B1A701B6803F00F
:100CF0000F03AB4255D1236813F0040F14D0E368FF
:100D00005BB1B3F5805F08D0B3F5A05F05D0B3F554
:100D1000C05F02D0B3F5E05F31D1244A936823F479
:100D2000E053E1680B439360236813F0080F15D07C
:100D300023695BB1B3F5805F08D0B3F5A05F05D040
:100D4000B3F5C05F02D0B3F5E05F1ED1174A9368D8
:100D500023F46043216943EAC1039360FFF7B0FEC7
:100D6000124B9B68C3F30313124AD35CD840124B57
:100D70001860124B1868FFF74BFB002070BD40F263
:100D8000BA210B4800F050FDC7E740F2C1210848E6
:100D900000F04AFDDAE7012070470120EEE701206C
:100DA000ECE70120EAE700BF003C024000380240C7
:100DB00010590008E05A00080C000020080000202C
:100DC000014B1868704700BF0C00002000B583B0CD
:100DD0008C461946134652B1074A53B1019300920B
:100DE00063460246054800F03FFB00F00BF8044A5A
:100DF000F3E7034BF2E700BF4059000850590008E1
:100E00001C5B000808B5034800F048FB012000F017
:100E100073F800BF8059000808B503460C4A1268F1
:100E20005AB10B4A1068033323F003030344094A01
:100E3000934206D8064A136008BD054A0649116068
:100E4000EFE703F0A1F80C2303604FF0FF30F3E766
:100E50009400002000FC01205030012000201328C5
:100E600007DC074B53F83030B3F1FF3F01D00130BE
:100E7000F5E7142800D070474FF0FF30FBE700BFC4
:100E80002001002030B51324002520462946ABBEA2
:100E90000446204630BD38B5044603F075F80546D3
:100EA000FFF7F0FF2860204638BDB0F1FF3F00D0CB
:100EB000704708B5FFF7EFFF08BD000010B5044606
:100EC0000B4B186808B1836B5BB1132C0CD8094B22
:100ED00053F83430B3F1FF3F08D0064800EBC400AC
:100EE00010BD03F0B5F9F0E70020F9E70020F7E7BF
:100EF000240000202001002000B530B9044D182442
:100F000020462946ABBE0446FEE7024DF7E700BF88
:100F100026000200230002002DE9F04184B0234F97
:100F200001970326039600230293012401AD204676
:100F30002946ABBE80461E4BC3F80080019703963E
:100F40000423029320462946ABBE8046194BC3F8C2
:100F50000080019703960823029320462946ABBEE2
:100F60000446154B1C60B4F1FF3F01D000230AE09A
:100F7000104B1A68104B1A60F8E7104A4FF0FF3117
:100F800042F833100133132BF7DD0C4B084A12687B
:100F90001A6000225A60074909689960DA600649B8
:100FA000096819615A6104B0BDE8F08194590008DC
:100FB000180100201C010020140100202001002045
:100FC0002DE9F04383B0814688462A4B00934F2396
:100FD000019315276C4638462146ABBE0746AFBB8A
:100FE000244B002283F84F20009A3E463C463D4663
:100FF00007E001321E46204B43F82520013501242D
:10100000013292F90030FBB164B91C49C95600297C
:10101000F6DB092BF4D0082D16DC222BE9D0272B88
:10102000E9D1E6E736B19E42EAD1002313703E468D
:101030003C46E5E71149C956002901DB092BDFD100
:10104000002313703446DBE73DB900E00025094B6F
:1010500000221A70084A13600135074B002243F83A
:101060002520C9F80050C8F80030FFF755FF03B03D
:10107000BDE8F08398000020E8000020495D0008EA
:1010800030B585B0019002910392062401AD20464F
:101090002946ABBE04462046FFF707FF05B030BD2A
:1010A00070B50D461446FFF709FF68B106462246A3
:1010B00029460068FFF7E4FFB0F1FF3F03D0201A94
:1010C00073680344736070BD02F05EFF0923036020
:1010D0004FF0FF30F7E7F0B583B00C461546FFF749
:1010E000EDFEC0B10646022D1CD8012D21D0022DE7
:1010F00029D03368009301940A256F462846394663
:10110000ABBE05462846FFF7D0FE00282BDB7460F7
:10111000204603B0F0BD02F037FF092303604FF013
:10112000FF30F6E702F030FF162303604FF0FF3088
:10113000EFE74368E418DCD502F026FF16230360CE
:101140004FF0FF30E5E7036800930C256F46284613
:101150003946ABBE05462846FFF7A7FEB0F1FF3F74
:10116000D7D00444C5E74FF0FF30D2E708B5FFF70A
:10117000B2FF08BD30B585B00190029103920524FD
:1011800001AD20462946ABBE04462046FFF78DFE42
:1011900005B030BD70B50D461446FFF78FFE70B137
:1011A0000646224629460068FFF7E4FF031E11DBCE
:1011B000E01A7268024472609C4207D070BD02F06F
:1011C000E3FE092303604FF0FF30F7E70020FFF74D
:1011D00062FEF3E74FF0FF30F0E730B583B00190E7
:1011E000022401AD20462946ABBE04462046FFF747
:1011F0005CFE03B030BD000038B50446FFF75EFE6C
:1012000080B10546601E012804D80C4B9A681B6902
:101210009A420ED02868FFF7E0FF10B94FF0FF3375
:101220002B6038BD02F0B0FE092303604FF0FF30A1
:10123000F7E74FF0FF332B600020F2E7200100209A
:1012400070B50C46FFF73AFEA8B10646636843F452
:10125000005363604FF48063A3640C252846314635
:10126000ABBE05462846FFF720FEB0F1FF3F01D098
:101270002061002070BD02F087FE092303604FF05B
:10128000FF30F7E738B505460C46582200212046C6
:1012900003F026FA21462846FFF7D2FF38BD38B5BD
:1012A00005460C4658220021204603F019FA002179
:1012B000284600F06BF80546B0F1FF3F0CD063689C
:1012C00043F4014363602146FFF7BAFF0446284612
:1012D000FFF792FF204638BD0446FBE7F0B59BB010
:1012E00007460C46FFF7BAFD0546B0F1FF3F32D086
:1012F00004F42063B3F5206F32D014F4803600D0AC
:10130000012614F0020F01D046F0020640F20163FC
:101310001C4201D046F0040614F0080F03D026F05A
:10132000040646F008061797384603F076FD199034
:101330001896012417AE20463146ABBE0446002C59
:101340001CDB114B43F8354003EBC50300225A6008
:1013500028461BB0F0BD02F017FE18230360F7E724
:1013600069463846FFF79BFFB0F1FF3FC5D002F05A
:101370000BFE112303604FF0FF35E9E72046FFF72E
:101380008AFD0546E4E700BF200100200EB400B549
:101390000199FFF7A3FF5DF804EB03B07047F0B5C8
:1013A0000C4650B106460027112528463946ABBEEB
:1013B0000546EB1735607360B76014B100232360F6
:1013C00063600020F0BD38B5FFF778FD80B10546B9
:1013D000092420462946ABBE04462046012C06D0EF
:1013E00002F0D2FD0446FFF74DFD2060002038BD1D
:1013F00002F0CAFD092303600020F8E72DE9F0435D
:1014000085B004460F4643563BBB0425284621467B
:10141000ABBE0546384605B0BDE8F08314F901CBF4
:1014200003F110026A4402F810CC0133AB42F5D349
:1014300010336B44002203F8102C4FF00408E946E7
:1014400040464946ABBE8046761B002EE2D035466C
:10145000102E28BF10250023E8E70E46F5E708B553
:10146000FFF7CCFF08BD00000FB400B583B004AB9C
:1014700053F8042B01938021074803F01DFD002839
:1014800004DC03B05DF804EB04B070470146024889
:10149000FFF7E5FFF5E700BFC001002010B50446E7
:1014A00003F0BBFC01462046FFF7D9FF01210248AB
:1014B000FFF7D5FF10BD00BF305A0008F8B504464D
:1014C0000D4617461E462748FFF7CEFF21682648DF
:1014D000FFF7CAFF61682548FFF7C6FFA1682448E7
:1014E000FFF7C2FFE1682348FFF7BEFF21692248EA
:1014F000FFF7BAFF61692148FFF7B6FFA1692048ED
:10150000FFF7B2FFE1691F48FFF7AEFF1E48FFF784
:10151000ABFF29461D48FFF7A7FF1D4CE16A1D4898
:10152000FFF7A2FF216B1C48FFF79EFFE16B1B48F2
:10153000FFF79AFF15F0800F0AD115F4004F0CD178
:101540001748FFF791FF06991648FFF78DFFF8BD82
:1015500039461548FFF788FFEFE731461348FFF794
:1015600083FFEDE798590008A8590008B85900080A
:10157000C8590008D8590008E8590008F859000867
:10158000085A0008185A0008285A0008345A000857
:1015900000ED00E0445A0008545A0008645A00085C
:1015A000945A00089C5A0008745A0008845A00088B
:1015B00038B583691B888B4201D0002038BD0446B2
:1015C00003684568013B302B69D8DFE803F046210A
:1015D0001C1C5E30332D191968191919191936197F
:1015E000246819276839686868686868686868687E
:1015F0006868686868686868686868686819190071
:101600004FF0FF330360A3690233A3610120D5E7E4
:1016100000230360F7E700230360F4E700232B6057
:101620006B60AB60EB60EEE700230360EBE7AB6859
:101630000360E8E700230360E5E700230360E2E7D7
:10164000BFF34F8F1749CA6802F4E062164B134389
:10165000CB60BFF34F8F00BFFDE71449286803F04C
:10166000D2FB40B96B6813B901232360CBE7042B8D
:1016700005D0082B06D04FF0FF332360C3E70223C9
:101680002360C0E703232360BDE72B68023B012BE7
:1016900002D9AB680360B6E700230360B3E700201C
:1016A0008CE700BF00ED00E00400FA059459000843
:1016B00008B500F009F8024A024B9A6008BD00BF65
:1016C0000000000800ED00E0024B4FF000629A605D
:1016D000704700BF00ED00E0224B9B6803F00C0355
:1016E000042B14D0082B16D01BB11F4B1F4A1A60B5
:1016F00002E01D4B1D4A1A601A4B9B68C3F303138B
:101700001B4AD15C184A1368CB4013607047164BD4
:10171000184A1A60F0E7134B59685A6802F03F0202
:1017200011F4800F13D0134BB3FBF2F30D4A526840
:10173000C2F3881202FB03F30A4A5268C2F3014261
:1017400001325200B3FBF2F3074A1360D4E7074BB0
:10175000B3FBF2F3034A5268C2F3881202FB03F3AD
:10176000EAE700BF003802400C0000200024F4002B
:10177000E05A000800127A0030B595B000240194B8
:10178000224B1A6C42F080521A641B6C03F0805397
:101790000193019B02941E4B1A6842F480421A6026
:1017A0001B6803F480430293029B012308934FF4C8
:1017B000803309934FF480030F93082310934FF461
:1017C000A873119302251295072313930E9508A869
:1017D000FEF7FAFE0F230393049505944FF4A053EC
:1017E00006934FF480530793052103A8FFF7D6F91A
:1017F000FFF7E6FA074BA3FB00308009FEF7B2FEC5
:101800000420FEF7C3FE15B030BD00BF0038024013
:1018100000700040D34D621008B5FEF71FFEFFF7C1
:10182000ABFFFFF759FF08BD08B50A46014602485D
:10183000FFF71AFEFEE700BFF05A000800B589B0B6
:1018400009E000231A4619460F48006800F095FF8A
:10185000642001F00FFD00234FF0FF3219460A48C3
:10186000006801F0B4F80028F2D000234FF47A7237
:1018700069460648006801F0AAF80028E1D0044A49
:10188000136801331360E3E7500200204C0200208C
:101890008402002030B583B004461B4A1378591CDB
:1018A000117013F0010F2AD1184B186801F0B4FD24
:1018B00003F0F8F9164B1A68164B1B689B1A013394
:1018C00090FBF3F103FB11031A44134B1A604FF41E
:1018D0007A7303FB02F2114BA3FB02320025009541
:1018E0002B4692090421204602F062F82B462A4634
:1018F00029460B48006800F040FF03B030BD034BA1
:10190000186801F013FBD3E75902002048020020B9
:10191000100000201C00002018000020D34D621091
:101920005402002070B582B00546234A1378591C32
:10193000117013F0010F39D1204B186801F06CFDC4
:1019400003F0B0F91E4B1A681E4B1B689B1A01333B
:1019500090FBF3F103FB11031A441B4C22601B495B
:101960001B4802F023FD06461A4B1B6822681A49E1
:1019700002F024FD304602F073FB22684FF47A73C4
:1019800003FB02F2154BA3FB023200240094234612
:1019900092090421284602F00BF8234622462146EC
:1019A0000F48006800F0E9FE02B070BD034B1868F4
:1019B00001F0BCFAC4E700BF580200204402002036
:1019C000100000201C00002014000020205B0008F4
:1019D000245B000818000020385B0008D34D62101B
:1019E000540200200346002006E00130044A82FB36
:1019F0000312DB17C3EBA203002BF6D1704700BF25
:101A0000676666660246002000E001301356002B30
:101A1000FBD1704770B505460C460846FFF7E2FF5C
:101A200006462846FFF7EEFF06EB000C0CF1FF32EE
:101A30000CE0094BA3FB0413DB08194603EB8303FB
:101A4000A4EB43033033AB540C46013A8242F0D24C
:101A5000002305F80C3070BDCDCCCCCC38B5054694
:101A60000C461146204603F06BF900231A46214626
:101A7000284600F082FE20B1044A13680133136047
:101A800038BD034A136801331360F9E78802002068
:101A90008002002000B589B01F4A6B4607CA03C305
:101AA0001A700023CDF80930CDF80D30CDF8113083
:101AB000CDF81530CDF819308DF81D301AE06A4692
:101AC0001649174B1868FFF7C9FF00218DF8081059
:101AD0000B460A461348006800F04FFE124B186888
:101AE0004FF47A7303FB00F0104BA3FB0030800926
:101AF00001F0C0FB01F0A8FA01466846FFF78AFF33
:101B000000234FF0FF3219460648006800F05FFFDF
:101B10000028D4D1E2E700BFE05C000860020020AA
:101B20004C0200205402002014000020D34D62100B
:101B300000B589B01F4A6B4607CA03C31A70002359
:101B4000CDF80930CDF80D30CDF81130CDF8153085
:101B5000CDF819308DF81D301AE06A461649174B3A
:101B60001868FFF77BFF00218DF808100B460A4626
:101B70001348006800F001FE124B18684FF47A73A6
:101B800003FB00F0104BA3FB0030800901F072FB57
:101B900001F05AFA01466846FFF73CFF00234FF078
:101BA000FF3219460648006800F011FF0028D4D122
:101BB000E2E700BFE05C0008600200204C02002069
:101BC0005402002018000020D34D62102DE9F04788
:101BD0004149424802F0EAFB0446414B1B68414A36
:101BE0001268414902F0EAFB404FDFF838A13A6839
:101BF0005146204602F0E2FB3D4EDFF82C91326860
:101C00004946204602F0DAFB3A4DDFF820812A6887
:101C10004146204602F0D2FB2346132201213648DA
:101C200002F0DCFC204602F01BFA3968504602F054
:101C30008FFF3168484602F08BFF2968404602F06A
:101C400087FF2E4802F0F8FF0021396031602960DB
:101C50002B4B186800F01AFD2A4B1B68052B34D05B
:101C60000133284A1360284A52F823201D4D2A6068
:101C7000264A52F823301A4C236003F013F82B68DD
:101C80002268D21A90FBF2F102FB11000344204AB1
:101C9000136003F007F82B682268D21A90FBF2F168
:101CA00002FB110003441B4A13600B491A4802F05F
:101CB0007DFB0446034610220121184802F08EFCE9
:101CC000204602F0CDF9BDE8F087154802F0B4FFD8
:101CD000002002F05FF900BF205B0008405B0008B5
:101CE0001C00002010000020505B0008880200202B
:101CF0008002002084020020E05B0008F45B000802
:101D00004C0200205C020020005D0008185D000805
:101D10001400002018000020245B0008585C000814
:101D2000085C0008645B0008905B0008B85B000872
:101D300008B5104A1378591C117013F0010F10D117
:101D40000D4B186801F068FB0C4B1B68B3F5FA7F6C
:101D50000CDA00231A4619460948006800F00DFD08
:101D600008BD054B186801F0E1F8EDE7FFF72EFF1D
:101D7000EFE700BF5A02002040020020840200204A
:101D80005002002030B585B04F48FFF787FB02A80E
:101D900003F04CF802F058FF4C4B019300240094E0
:101DA0002346C8224A494B4801F08EF84A4B01931A
:101DB00000942346C8224949494801F085F8494B17
:101DC000019300942346C8224749484801F07CF813
:101DD00022461E21022000F0ACFC454B1860032275
:101DE0002146012000F0A5FC424B186020B123469B
:101DF0002246214600F0C1FC03220021012000F010
:101E000098FC3D4B186020B100231A46194600F09B
:101E1000B4FC3A4B0093002301226421384801F0BE
:101E2000ADFD384C2060384B009301231A466421E5
:101E3000364801F0A3FD364B1860364B0093012362
:101E40001A466421344801F099FD344B1860246827
:101E50004CB32F4B1B6833B328B301F0F5F802469F
:101E6000002500952B460121204601F0A1FD2C4BB9
:101E70001860274B1C6801F0E7F8024600952B46D6
:101E80000121204601F094FD264B1860234B1C686D
:101E900001F0DAF8024600952B460121204601F0B8
:101EA00087FD214B18601E4B1B68012B03D11D4B76
:101EB0001B68012B05D01D48FFF7F0FA002005B084
:101EC00030BD01F077F8F9E7145C00084402002007
:101ED0006C5C0008951A000848020020745C000839
:101EE000311B0008400200207C5C00083D180008FF
:101EF0004C02002054020020500200202519000846
:101F0000885C00088C02002095180008905C00088E
:101F100094020020311D0008985C00089C020020FB
:101F20009002002098020020A0020020A05C00087F
:101F3000FEE7FEE700B583B000F026F90190019BB3
:101F400003B05DF804FB704770470000124A12F0BE
:101F5000070F1ED0D11D21F00701C1F596331344A0
:101F60000A460E480260002141601344083B23F0FA
:101F700007030B48036059601960991A5160136098
:101F8000084B1960084B1960084B4FF000421A606B
:101F900070474FF49633E4E7A8020020B42E0120E6
:101FA000A4020020B02E0120AC2E0120A82E01207A
:101FB000164B1A461B688342FBD3516802EB010C97
:101FC000844509D0416800EB010C634509D00360EA
:101FD000904219D01060704740680144516010462B
:101FE000F0E710B40A4C2468A3420BD05B68194494
:101FF000416013681B680360904200D010605DF878
:10200000044B70470460F7E7704700BFB42E01200F
:10201000A402002070B5054601F00EF8394B1B688C
:102020009BB1394B1B681D4212D135B1083515F0F3
:10203000070F02D025F007050835D5B1334B1B68D3
:10204000AB421AD3324A14681DE0FFF77FFFE8E77E
:1020500001F094F80026FFF76BFF16F0070F4FD042
:102060004FF0500383F31188BFF36F8FBFF34F8F8F
:10207000FEE701F083F80026EDE701F07FF8002687
:10208000E9E722461C466368AB4202D22368002B74
:10209000F7D11C4B1B68A34214D01668083623687E
:1020A000136063685B1B102B14D9601910F0070FC5
:1020B0000CD04FF0500383F31188BFF36F8FBFF341
:1020C0004F8FFEE701F05AF80026C4E743606560D1
:1020D000FFF76EFF62680D490B689B1A0B600D4994
:1020E00009688B4201D20B490B60074B1B681343F5
:1020F00063600023236001F041F8002EADD1AAE710
:10210000304670BDA4020020A82E0120AC2E012074
:10211000B42E0120B02E012080B338B50446A0F1C2
:10212000080550F8043C164A1268134208D14FF0D3
:10213000500383F31188BFF36F8FBFF34F8FFEE718
:1021400050F8081C41B14FF0500383F31188BFF3DE
:102150006F8FBFF34F8FFEE723EA020340F8043C82
:1021600000F06AFF54F8041C064A13680B4413601D
:102170002846FFF71DFF01F001F838BD704700BF8A
:10218000A82E0120AC2E0120014B1868704700BF1B
:10219000AC2E01200B4B1B68B3F1FF3F08D04FF072
:1021A000500383F31188BFF36F8FBFF34F8FFEE7A8
:1021B0004FF0500383F31188BFF36F8FBFF34F8F3E
:1021C000FEE700BF2000002006480068006880F39A
:1021D000088862B661B6BFF34F8FBFF36F8F00DF21
:1021E00000BF000008ED00E04FF0807340F8043CB1
:1021F00021F0010140F8081C054B40F80C3C40F868
:10220000202C6FF0020340F8243C4438704700BF94
:102210009521000800000000000000000000000000
:10222000074B19680868B0E8F04F80F30988BFF3DE
:102230006F8F4FF0000080F311887047AFF300807C
:10224000042F01204FF0500383F31188BFF36F8FE9
:10225000BFF34F8F0B4A136801331360012B00D07B
:1022600070474FF0E023D3F8043D13F0FF0FF7D091
:102270004FF0500383F31188BFF36F8FBFF34F8F7D
:10228000FEE700BF20000020094B1B6843B94FF058
:10229000500383F31188BFF36F8FBFF34F8FFEE7B7
:1022A000013B034A13600BB983F31188704700BFE9
:1022B00020000020000000000000000000000000DE
:1022C000EFF30980BFF36F8F154B1A681EF0100FE4
:1022D00008BF20ED108A20E9F04F10604DF8043D52
:1022E0004FF0500080F31188BFF34F8FBFF36F8F13
:1022F00001F02CF84FF0000080F3118808BC196839
:102300000868B0E8F04F1EF0100F08BFB0EC108A5C
:1023100080F30988BFF36F8F704700BFAFF3008071
:10232000042F012008B54FF0500383F31188BFF349
:102330006F8FBFF34F8F00F08DFE28B14FF0E02379
:102340004FF08052C3F8042D002383F3118808BD99
:10235000064B1B68064AA2FB03239B09013B4FF077
:10236000E022536107231361704700BF0C00002077
:10237000D34D62104FF0E023D3F8002D344B9A4236
:102380001CD04FF0E023D3F8002D324B9A421ED0E0
:1023900010B582B0304B1A78D2B20192FF221A7077
:1023A0001B78DBB28DF803309DF8033003F0500347
:1023B0002A4A13702A4B07221A601BE04FF0500381
:1023C00083F31188BFF36F8FBFF34F8FFEE74FF09A
:1023D000500383F31188BFF36F8FBFF34F8FFEE776
:1023E0001F4A1368013B13609DF803305B00DBB2AA
:1023F0008DF803309DF8033013F0800FF0D1184AA8
:1024000013681B02136003F4E0631360019BDBB2EB
:10241000114A13704FF0E024D4F8203D43F47003C8
:10242000C4F8203DD4F8203D43F07043C4F8203D6B
:10243000FFF78EFF0B4B00221A60D4F8343F43F0B5
:102440004043C4F8343FFFF7BFFEFFF7A3FE00BFD1
:1024500071C20F4170C20F4100E400E0BC2E0120A8
:10246000C02E012020000020EFF305830F2B0FD991
:10247000114A9B5CDBB2114A12789A4208D94FF09C
:10248000500383F31188BFF36F8FBFF34F8FFEE7C5
:102490004FF0E023D3F80C3D03F4E063084A1268E0
:1024A000934208D94FF0500383F31188BFF36F8F25
:1024B000BFF34F8FFEE77047F0E300E0BC2E012032
:1024C000C02E012000F1080343604FF0FF3282600C
:1024D000C3600361002303607047002303617047FA
:1024E00043684B609A688A6051609960086103682C
:1024F00001330360704730B40D68B5F1FF3F11D070
:1025000000F108031C465B681A68AA42FAD963689E
:102510004B6099608C6061600861036801330360FF
:1025200030BC70470469F2E70369416882688A60D9
:10253000416851605A68824205D0002202611868E1
:1025400001381860704782685A60F6E710B5044693
:10255000FFF778FEA26BE36B9A4204D00024FFF7EA
:1025600093FE204610BD0124F9E710B50446FFF79D
:1025700069FEA36B23B90124FFF786FE204610BD38
:102580000024F9E770B504461546866B026C5AB90B
:1025900003681BB100200136A66370BD406801F0DE
:1025A000DDF800236360F6E76DB9806802F08AF811
:1025B000226CA3681344A3606268934219D3236812
:1025C000A3602846E7E7C06802F07CF8226C51421D
:1025D000E3689B1AE3602268934202D263680B446B
:1025E000E360022D01D00020D5E726B1013E002096
:1025F000D1E72846CFE70020CDE70346026C6AB159
:1026000010B50846D9681144D9605C68A14201D36D
:102610001968D960D96802F055F810BD704738B50F
:102620000546FFF70FFE95F8454064B201E0013C16
:1026300064B2002C0ADD6B6A43B105F1240000F09E
:102640008BFF0028F3D001F023F8F0E7FF2385F893
:102650004530FFF719FEFFF7F5FD95F8444064B2E9
:1026600001E0013C64B2002C0ADD2B6943B105F1A5
:10267000100000F071FF0028F3D001F009F8F0E736
:10268000FF2385F84430FFF7FFFD38BD38B5E0B1D2
:102690000D460446FFF7D6FD2368E26B216C01FB73
:1026A000023060600020A063A360013A02FB0133A6
:1026B000E360FF2384F8443084F84530FDB9236992
:1026C00063B9FFF7E1FD012038BD4FF0500383F3FC
:1026D0001188BFF36F8FBFF34F8FFEE704F1100037
:1026E00000F03AFF0028ECD04FF0E0234FF080528A
:1026F000C3F8042DBFF34F8FBFF36F8FE1E704F1F1
:102700001000FFF7DFFE04F12400FFF7DBFED8E73F
:1027100038B51D46049C0B4649B92460E063236428
:1027200001212046FFF7B2FF84F84C5038BD2260EB
:10273000F4E740B94FF0500383F31188BFF36F8F74
:10274000BFF34F8FFEE7F0B583B00C461546064643
:1027500089B101FB00F05030FFF75CFC074638B14F
:1027600000902B4600F1500221463046FFF7D0FF83
:10277000384603B0F0BD0846EDE7F0B585B00192EC
:1027800088B10F461D460446B1B1022D20D1E36B3E
:10279000012B1DD04FF0500383F31188BFF36F8FCF
:1027A000BFF34F8FFEE74FF0500383F31188BFF361
:1027B0006F8FBFF34F8FFEE7036C002BE5D04FF018
:1027C000500383F31188BFF36F8FBFF34F8FFEE782
:1027D00000F064FF064658B9019B002B48D04FF02B
:1027E000500383F31188BFF36F8FBFF34F8FFEE762
:1027F00000263DE02A4639462046FFF7C3FE636ABD
:102800007BB948B14FF0E0234FF08052C3F8042D5C
:10281000BFF34F8FBFF36F8FFFF736FD012005B079
:10282000F0BD04F1240000F097FE0028F4D04FF032
:10283000E0234FF08052C3F8042DBFF34F8FBFF356
:102840006F8FE9E7FFF720FD0020E8E702A800F01E
:10285000C9FE012619E0002384F8443021E000235A
:1028600084F8453023E02046FFF7D9FE00F086FCCF
:10287000FFF7E8FCA26BE36B9A42BBD3022DB9D001
:10288000019B002BDED0002EE0D0FFF7FDFC00F016
:10289000D3FBFFF7D7FC94F8442052B2B2F1FF3FCC
:1028A000D9D094F8452052B2B2F1FF3FD7D0FFF70C
:1028B000EBFC01A902A800F0ABFED8B92046FFF757
:1028C00045FE0028CFD0019904F1100000F010FE61
:1028D0002046FFF7A4FE00F051FC0028C8D14FF0BD
:1028E000E0234FF08052C3F8042DBFF34F8FBFF3A6
:1028F0006F8FBDE72046FFF792FE00F03FFC0020FF
:102900008DE72DE9F84390B10F4616461C46054663
:10291000B1B1022C20D1EB6B012B1DD04FF0500335
:1029200083F31188BFF36F8FBFF34F8FFEE74FF034
:10293000500383F31188BFF36F8FBFF34F8FFEE710
:10294000036C002BE5D04FF0500383F31188BFF3E5
:102950006F8FBFF34F8FFEE7FFF786FDEFF3118810
:102960004FF0500383F31188BFF36F8FBFF34F8F86
:10297000AA6BEB6B9A4206D3022C04D0002088F39A
:102980001188BDE8F88395F845904FFA89F92246F9
:1029900039462846FFF7F6FDB9F1FF3F06D009F1A9
:1029A00001035BB285F845300120E8E76B6A0BB99B
:1029B0000120E4E705F1240000F0CEFD18B126B1B6
:1029C00001203060DBE70120D9E70120D7E72DE9BE
:1029D000F04184B00192A0B10E4698460446C9B1B8
:1029E00000F05CFE054608BB019B002B00F08780D1
:1029F0004FF0500383F31188BFF36F8FBFF34F8FF6
:102A0000FEE74FF0500383F31188BFF36F8FBFF3DE
:102A10004F8FFEE7036C002BE2D04FF0500383F39F
:102A20001188BFF36F8FBFF34F8FFEE7002566E07D
:102A3000E56831462046FFF7E0FDB8F1000F20D1F0
:102A40007B1EA36323683BB123694BB9FFF71CFCD2
:102A5000012004B0BDE8F08100F0D8FE6060F3E72B
:102A600004F1100000F078FD0028EFD04FF0E023D3
:102A70004FF08052C3F8042DBFF34F8FBFF36F8F19
:102A8000E4E7E560636A002BE0D004F1240000F085
:102A900063FD0028DAD04FF0E0234FF08052C3F8F6
:102AA000042DBFF34F8FBFF36F8FCFE7FFF7ECFB22
:102AB0000020CEE702A800F095FD012529E00023C3
:102AC00084F8443031E0002384F8453033E0FFF7E8
:102AD000B9FB606800F0F2FDFFF7D6FB3BE0204653
:102AE000FFF79DFD00F04AFB09E02046FFF797FD48
:102AF00000F044FB2046FFF738FD002842D1FFF7E5
:102B0000A1FBA76B002F93D1019B002BCED0002DF2
:102B1000D0D0FFF7B9FB00F08FFAFFF793FB94F8E2
:102B2000442052B2B2F1FF3FC9D094F8452052B2CE
:102B3000B2F1FF3FC7D0FFF7A7FB01A902A800F041
:102B400067FD0028D1D12046FFF70FFD0028C6D031
:102B50002368002BBBD0019904F1240000F0C8FCCD
:102B60002046FFF75CFD00F009FB0028C7D14FF0BD
:102B7000E0234FF08052C3F8042DBFF34F8FBFF313
:102B80006F8FBCE7002064E70023072B0CD8074AAF
:102B900052F833200AB10133F7E7044A42F8331000
:102BA00002EBC30250607047704700BFC42E012083
:102BB00070B504460D461646FFF744FB94F84430C2
:102BC0005BB2B3F1FF3F0DD094F845305BB2B3F187
:102BD000FF3F0BD0FFF758FBA36B5BB12046FFF71D
:102BE0001EFD70BD002384F84430EDE7002384F817
:102BF0004530EFE73246294604F1240000F090FC0E
:102C0000ECE7000028B141690C4A91420AD000204B
:102C100070474FF0500383F31188BFF36F8FBFF3FA
:102C20004F8FFEE7836A064A934202D01BB1002011
:102C30007047002070470120704700BFD82F012047
:102C4000C02F0120084B1B681B6823B9074B4FF0AE
:102C5000FF321A607047044B1B68DB68DB685A68F8
:102C6000024B1A60704700BF082F0120B82F0120C7
:102C700010B50446006BFFF74FFA2046FFF74CFAF9
:102C800010BD2DE9F04780460D4617469946089E2F
:102C9000DDF824A00A9C9200A521206B01F020FD04
:102CA000236B07F18042013A03EB820727F0070705
:102CB0004FF0000CBCF1090F09D815F90C3004EBEA
:102CC0000C0282F8343013B10CF1010CF2E700234E
:102CD00084F83D30042E00D90426E662A66400255F
:102CE000E564201DFFF7F9FB04F11800FFF7F5FB81
:102CF0002461C6F10506A6616462256584F8545016
:102D00004A4641463846FFF76FFA2060BAF1000F95
:102D100001D0CAF80040BDE8F087000038B50024B3
:102D200007E004EB840293000E481844FFF7CAFB47
:102D30000134042CF5D90C4D2846FFF7C3FB0B4C8E
:102D40002046FFF7BFFB0A48FFF7BCFB0948FFF727
:102D5000B9FB0948FFF7B6FB084B1D60084B1C6028
:102D600038BD00BF102F01208C2F0120A02F012083
:102D7000C02F0120EC2F0120D82F0120082F012087
:102D80000C2F012010B50446FFF75CFA224A1368A5
:102D900001331360214B1B685BB1214B1B686BB97E
:102DA0001E4B1B68DA6AE36A9A4207D81B4B1C6009
:102DB00004E01A4B1C601368012B29D0194A1368D0
:102DC000013313602364E06A01238340164A1168CB
:102DD0000B43136000EB8000211D144B03EB8000BC
:102DE000FFF77EFBFFF750FA0D4B1B687BB10B4BD7
:102DF0001B68DA6AE36A9A4209D24FF0E0234FF087
:102E00008052C3F8042DBFF34F8FBFF36F8F10BDF7
:102E1000FFF784FFD2E700BF742F0120042F0120A9
:102E2000D42F0120842F0120882F0120102F012072
:102E300070B504460D461D4B1E681D4B18680430C6
:102E4000FFF772FB48B91A4B1B68DB6A01229A40F4
:102E500018490B6823EA02030B60B4F1FF3F0DD061
:102E60003444134B1B685C60A64210D9124B18689F
:102E70000F4B19680431FFF73EFB70BD002DEFD0FA
:102E80000B4B196804310D48FFF72AFBF5E70C4B93
:102E90001868074B19680431FFF72DFB094B1B68B5
:102EA000A342EAD9074B1C60E7E700BF00300120CE
:102EB000042F0120882F01200C2F0120D82F012062
:102EC000082F0120B82F01202DE9F04385B00746D7
:102ED000884614461E469000FFF79CF8F0B18146E4
:102EE0005820FFF797F80546A0B1C0F83090D5B14B
:102EF0000023039302950D9B01930C9B0093334693
:102F0000224641463846FFF7BCFE2846FFF73AFF07
:102F1000012005E04846FFF7FFF8E8E74FF0FF30F3
:102F200005B0BDE8F0834FF0FF30F9E738B568B180
:102F300004461D4B1B68834207D0FFF783F92046E8
:102F4000FFF760FE58B9FFF79FF938BD4FF0500307
:102F500083F31188BFF36F8FBFF34F8FFEE7251DFB
:102F60002846FFF7E1FAE06A012383400F4A11681F
:102F70000B43136000EB800029460D4B03EB8000F0
:102F8000FFF7AEFAE26A084B1B68DB6A9A42DAD3B3
:102F90004FF0E0234FF08052C3F8042DBFF34F8F62
:102FA000BFF36F8FCFE700BF042F0120882F0120D0
:102FB000102F012000B583B0194B0193002300931B
:102FC000822218491848FFF77FFF012807D00128FF
:102FD00008D0B0F1FF3F1AD003B05DF804FB00F059
:102FE000A5FCF4E74FF0500383F31188BFF36F8F14
:102FF000BFF34F8F0D4B4FF0FF321A600C4B012285
:103000001A600C4B00221A60FFF7B4F9E4E74FF0A6
:10301000500383F31188BFF36F8FBFF34F8FFEE729
:10302000B42F0120305D00081D330008B82F0120A7
:10303000D42F012000300120024A136801331360AD
:10304000704700BF802F0120014B1868704700BFF8
:1030500000300120F8B53E4B1B68002B6AD13D4B78
:103060001D6801351D60C5B93B4B1B681B6843B12A
:103070004FF0500383F31188BFF36F8FBFF34F8F6F
:10308000FEE7354A1168354B186810601960344AFC
:10309000136801331360FFF7D5FD324B1B68AB4259
:1030A0003ED90027304B1B68DB6A03EB83039A0091
:1030B0002E4B9B58012B00D901272D4B1B68002B51
:1030C0003FD1FEF740FF3CE00127234B1B681B6804
:1030D00043B3214B1B68DB68DC6863689D4226D3E1
:1030E000261D3046FFF720FAA36A1BB104F1180031
:1030F000FFF71AFAE36A01229A401E490868024360
:103100000A6003EB83039A00314618481044FFF726
:10311000E7F9E26A144B1B68DB6A9A42D4D2D4E71F
:103120000027D2E70F4B4FF0FF321A60BAE70D4A83
:103130001360B7E70E4A136801331360FEF703FF0D
:1031400000270D4B1B6803B101273846F8BD00BFAF
:10315000802F012000300120082F01200C2F01209A
:10316000BC2F0120B82F0120042F0120102F012097
:103170007C2F0120882F01200430012038B5354BE9
:103180001B6843B94FF0500383F31188BFF36F8F6F
:10319000BFF34F8FFEE7FFF755F82E4B1A68013A41
:1031A0001A601B68002B4FD12B4B1B680BB90024F6
:1031B0004BE00024294B1B681BB3284BDB68DC6801
:1031C00004F11800FFF7B0F9251D2846FFF7ACF908
:1031D000E06A01238340224A11680B43136000EB2D
:1031E000800029461F4B03EB8000FFF779F9E26A64
:1031F0001D4B1B68DB6A9A42DCD31C4B01221A6010
:10320000D8E70CB1FFF71EFD194B1C6884B9174BAA
:103210001C68D4B14FF0E0234FF08052C3F8042D66
:10322000BFF34F8FBFF36F8F01240EE0013C07D037
:10323000FFF710FF0028F9D00C4B01221A60F5E7C8
:103240000B4B00221A60E2E70024FFF71DF820462E
:1032500038BD00BF802F0120742F0120C02F012016
:10326000882F0120102F0120042F0120043001207D
:103270007C2F012010B5A8B10446104B1B6843B148
:103280004FF0500383F31188BFF36F8FBFF34F8F5D
:10329000FEE7FFF7D1FE00212046FFF7C9FDFFF74B
:1032A0006DFF48B94FF0E0234FF08052C3F8042D72
:1032B000BFF34F8FBFF36F8F10BD00BF802F012072
:1032C000134B1B6813B310B5FFF7B6FE114B1C6808
:1032D000FFF754FF24B90E4B1B68002BF4D110BD2F
:1032E000FEF7B0FF0B4BDB68DC68201DFFF71CF915
:1032F000094A1368013B1360054A1368013B1360D8
:10330000FEF7C2FF2046FFF7B3FCE4E7704700BFBB
:10331000782F0120EC2F0120742F012008B50BE03D
:103320004FF0E0234FF08052C3F8042DBFF34F8FCE
:10333000BFF36F8FFEF7FEFDFFF7C2FF024B1B6866
:10334000012BEDD8F6E700BF102F012008B52D4B5B
:103350001B681BB12C4B01221A6008BD2A4B0022AE
:103360001A602A4B1B681B6B1A68B2F1A53F03D188
:103370005A68B2F1A53F1BD0244B18681968343144
:10338000FEF7D7FD224B1B68B3FA83F3DBB2C3F120
:103390001F0303EB83018A001E498A588AB94FF044
:1033A000500383F31188BFF36F8FBFF34F8FFEE796
:1033B0009A68B2F1A53FDFD1DB68B3F1A53FDBD15D
:1033C000E0E7144903EB830082000A445068406838
:1033D000506003EB830C4FEA8C02083211448842A0
:1033E00009D003EB83039A000A4B13445B68DA6845
:1033F000064B1A60B1E7406862469100054A0A44EC
:103400005060EEE7802F012004300120042F0120BE
:10341000882F0120102F012038B50446FEF712FF37
:1034200034B3251D2846FFF77FF868B9E36A03EB3C
:103430008301284A52F8212032B901229A402649B4
:103440000B6823EA02030B60A36A1BB104F11800A6
:10345000FFF76AF829462148FFF742F8FEF714FF04
:103460001F4B1B683BB91F4B1B68A3420AD038BDDA
:103470001C4B1C68D5E7FEF7E5FEFFF7E3FBFEF704
:1034800003FFF0E7164B1B68B3B1174B1B6843B142
:103490004FF0500383F31188BFF36F8FBFF34F8F4B
:1034A000FEE74FF0E0234FF08052C3F8042DBFF346
:1034B0004F8FBFF36F8FDAE7084B1A680B4B1B680F
:1034C0009A4203D1074B00221A60D0E7FFF73EFF74
:1034D000CDE700BF102F0120882F0120D82F012019
:1034E000D42F0120042F0120802F0120742F0120D0
:1034F00058B110B50C46094A11681831FEF7FBFFA8
:1035000001212046FFF794FC10BD4FF0500383F3D8
:103510001188BFF36F8FBFF34F8FFEE7042F012099
:1035200038B570B10D4614460A4A11681831FEF7D5
:10353000D7FF0CB14FF0FF3521462846FFF778FC46
:1035400038BD4FF0500383F31188BFF36F8FBFF383
:103550004F8FFEE7042F012038B5C368DC6824B321
:1035600004F118052846FEF7DFFF184B1B682BBB3C
:10357000251D2846FEF7D8FFE06A01238340144A40
:1035800011680B43136000EB80002946114B03EBDD
:103590008000FEF7A5FFE26A0F4B1B68DB6A9A42C8
:1035A00011D901200D4B186038BD4FF0500383F343
:1035B0001188BFF36F8FBFF34F8FFEE7294608488E
:1035C000FEF78EFFE7E70020EEE700BF802F012027
:1035D000882F0120102F0120042F0120043001200A
:1035E000C02F012030B1084A12680260074A1268F1
:1035F000426070474FF0500383F31188BFF36F8F21
:10360000BFF34F8FFEE700BFBC2F01200030012029
:1036100038B5C0B10C460546F1B1FEF713FE1A4BA2
:103620001A682368B3F1FF3F27D028681749096853
:10363000884202D06968914224D96968501A83424D
:1036400013D801241AE04FF0500383F31188BFF31D
:103650006F8FBFF34F8FFEE74FF0500383F3118856
:10366000BFF36F8FBFF34F8FFEE7891A0B442360C0
:103670002846FFF7B7FF002400E00024FEF704FE11
:10368000204638BD0124F9E700300120BC2F01207D
:10369000014B01221A60704704300120054B1B6862
:1036A00033B1054B1B680BB10020704702207047F7
:1036B00001207047D42F0120802F0120002845D001
:1036C00038B50446C36A224A1268D26A934214D2B9
:1036D0008269002A05DB1E4A1268D26AC2F105021D
:1036E0008261616903EB83031A4A02EB8303994207
:1036F00004D0174B1B68DB6AE36238BD251D2846E2
:10370000FEF712FF90B1124B1B68D86AE0620123EA
:103710008340114A11680B43136000EB8000294677
:103720000C4B03EB8000FEF7DBFEE6E7E36A03EBFE
:103730008301084A52F82120002AE4D101229A404C
:1037400005490B6823EA02030B60DCE7704700BF02
:10375000042F0120102F0120882F012000284BD09A
:1037600038B50446264B1B68834208D04FF05003FF
:1037700083F31188BFF36F8FBFF34F8FFEE7C36CE6
:1037800043B94FF0500383F31188BFF36F8FBFF33A
:103790004F8FFEE7013BC364C16A826C91422DD01A
:1037A0000BB1002038BD051D2846FEF7BDFE68B9E7
:1037B000E36A03EB8301134A52F8212032B9012254
:1037C0009A4011490B6823EA02030B60A06CE06287
:1037D000C0F10503A361012404FA00F30A4A116849
:1037E0000B43136000EB80002946064B03EB80007F
:1037F000FEF776FE2046D5E7002070470020D1E78F
:10380000042F0120102F0120882F0120054B1B6859
:1038100023B1044B1A68D36C0133D364014B18688D
:10382000704700BF042F0120064B1A681368B3FAD3
:1038300083F35B09036013B9D368186870470020ED
:10384000704700BF0830012008B541600061914217
:103850000CD8D21A83699A4201D3012008BD011DF8
:10386000094B1868FEF747FE0020F7E79A4201D29D
:10387000994206D2011D054B1868FEF73CFE002058
:10388000ECE70120EAE700BF0C30012008300120FE
:1038900038B5FEF7D7FC0F4B1B6813B1FEF7F4FCED
:1038A00038BD0D4D2846FEF70DFE0C4C2046FEF7A8
:1038B00009FE0B4B1D600B4B1C6000220C210A20E3
:1038C000FEF737FF034B18600028E7D00649FFF7E3
:1038D0005BF9E3E73C300120103001202430012067
:1038E000083001200C300120385D00082DE9F0413E
:1038F000079F41B94FF0500383F31188BFF36F8FD7
:10390000BFF34F8FFEE7064615461C4688465FB15B
:10391000FFF7BEFF3E60C7F81880FD613C62069B62
:103920007B62381DFEF7D9FDBDE8F08100B583B09C
:10393000FFF7AEFF0D4B1B685BB10D4B01930223EC
:10394000009300234FF482720A490B48FFF7BCFA38
:1039500040B94FF0500383F31188BFF36F8FBFF36B
:103960004F8FFEE703B05DF804FB00BF3C30012041
:1039700040300120405D0008753C00082DE9F04111
:1039800082B00446884615461E462C20FEF742FBB0
:10399000074640B10190089B009333462A464146B2
:1039A0002046FFF7A3FF384602B0BDE8F0810000D3
:1039B000B8B19C4603461848006858B300B585B0B6
:1039C00001910292039305291CDCFFF767FE022890
:1039D00010D000231A4601A90F480068FEF7CDFE5B
:1039E00015E04FF0500383F31188BFF36F8FBFF3DF
:1039F0004F8FFEE70023069A01A907480068FEF7EB
:103A0000BCFE04E00023624601A9FEF77AFF05B080
:103A10005DF804FB002070473C30012070B582B097
:103A20001A4B1B681A6852B3DB681E68DC68251DD8
:103A30002846FEF779FD636A20469847E369012B23
:103A4000EED1A36933449E4207D2636024612946C4
:103A50000E4B1868FEF74FFDE2E7002100910B4680
:103A600032462046FFF7A4FF0028D9D14FF050037B
:103A700083F31188BFF36F8FBFF34F8FFEE7044AC4
:103A8000106802490860136002B070BD0830012060
:103A90000C30012038B50546FFF7D6FA0446074B2F
:103AA0001B68834205D800232B60044B1C60204612
:103AB00038BDFFF7B3FF01232B60F6E73830012054
:103AC00070B582B006460D4614490968C968CC68CD
:103AD000201DFEF729FDE169012904D0636A204613
:103AE000984702B070BDA16933462A46314420464A
:103AF000FFF7AAFE0028F1D0002100910B463246C4
:103B00002046FFF755FF0028E8D14FF0500383F31C
:103B10001188BFF36F8FBFF34F8FFEE7083001208E
:103B200070B582B006460C46FFF786FA01A8FFF78B
:103B3000B1FF019B2BBB05460CB9B0421AD22CB188
:103B4000124B1B681C68B4FA84F464092246711B8A
:103B50000F4B1868FFF72CF8FFF710FB98B94FF0E0
:103B6000E0234FF08052C3F8042DBFF34F8FBFF313
:103B70006F8F08E0FFF702FB29463046FFF7A0FFF2
:103B800001E0FFF7FBFA02B070BD00BF0C3001206E
:103B90003C30012010B586B000231A4603A93448F2
:103BA0000068FEF714FF002860D0039B002BF3DBB6
:103BB000059C636913B1201DFEF7B6FC02A8FFF750
:103BC00069FF039B092BE7D801A252F823F000BF3D
:103BD000F93B0008F93B0008F93B0008993B000855
:103BE0003F3C0008653C0008F93B0008F93B000831
:103BF000993B00083F3C0008049BA1690246194418
:103C00002046FFF721FE0028C6D0636A2046984769
:103C1000E369012BC0D1A269002100910B460498F1
:103C200002442046FFF7C4FE0028B5D14FF05003F0
:103C300083F31188BFF36F8FBFF34F8FFEE70499B3
:103C4000A16131B10346024601442046FFF7FCFD65
:103C5000A2E74FF0500383F31188BFF36F8FBFF3D8
:103C60004F8FFEE72046FEF757FA95E706B010BDE6
:103C70003C30012000B583B001A8FFF7D5FD0199C4
:103C8000FFF74EFFFFF786FFF6E7000053B94AB98A
:103C9000002908BF00281CBF4FF0FF314FF0FF3054
:103CA00000F070B9ADF1080C6DE904CE00F006F833
:103CB000DDF804E0DDE9022304B070472DE9F047A8
:103CC000089E0D4604460F46002B4AD18A42944670
:103CD00065D9B2FA82F343B102FA03FCC3F12002C0
:103CE0009F4020FA02F217439C404FEA1C4E1FFAF5
:103CF0008CF5B7FBFEF1220C0EFB117742EA07426E
:103D000001FB05F090420AD91CEB020201F1FF37DA
:103D100080F01C81904240F2198102396244121AEB
:103D2000A4B2B2FBFEF00EFB102244EA024400FBF8
:103D300005F5A5420AD91CEB040400F1FF3280F01E
:103D40000781A54240F204816444023840EA014000
:103D5000641B00211EB1DC400023C6E90043BDE81E
:103D6000F0878B4208D9002E00F0ED800021C6E9D3
:103D700000050846BDE8F087B3FA83F1002949D170
:103D8000AB4202D3824200F2F880841A65EB030250
:103D900001201746002EE2D0C6E90047DFE702B94E
:103DA000FFDEB2FA82F3002B40F090808A1A4FEACD
:103DB0001C471FFA8CFE0121B2FBF7F507FB15200B
:103DC000220C42EA00420EFB05F0904208D91CEB9F
:103DD000020205F1FF3802D2904200F2CB80454644
:103DE000121AA4B2B2FBF7F007FB102244EA024415
:103DF0000EFB00FEA64508D91CEB040400F1FF32BF
:103E000002D2A64500F2BB801046A4EB0E0440EAA5
:103E100005409FE7C1F120078B4022FA07FC4CEADE
:103E2000030C05FA01F420FA07F3FD404FEA1C49A0
:103E30002343B5FBF9F81FFA8CFE09FB18551C0C3F
:103E400044EA054408FB0EF5A54202FA01F200FA25
:103E500001F00BD91CEB040408F1FF3A80F08880D4
:103E6000A54240F28580A8F102086444641B9DB21B
:103E7000B4FBF9F309FB134445EA044403FB0EFECB
:103E8000A64508D91CEB040403F1FF356CD2A64506
:103E90006AD9023B644443EA0843A3FB0295A4EBBE
:103EA0000E04AC42C846AE4656D353D056B1B0EB22
:103EB000080264EB0E0404FA07F7CA40CC4017432B
:103EC000C6E9007418460021BDE8F087C3F120015F
:103ED00002FA03FC20FA01F225FA01F19D402A437F
:103EE0004FEA1C471FFA8CFEB1FBF7F007FB1015D9
:103EF000110C41EA054100FB0EF58D4204FA03F472
:103F000008D91CEB010100F1FF382FD28D422DD9C9
:103F100002386144491B92B2B1FBF7F507FB15115A
:103F200042EA014205FB0EF1914208D91CEB020264
:103F300005F1FF3816D2914214D9023D6244521A5B
:103F400045EA004138E73146304608E73946E6E6BB
:103F50001046FBE64845A9D2B9EB020865EB0C0E0A
:103F6000013BA3E74546EAE72B4694E74046D1E705
:103F7000D0467BE7023D624432E708460AE76444E4
:103F8000023842E7704700BF014B1868704700BF16
:103F90002400002008B5074B044613B10021AFF3FD
:103FA0000080054B1868836A03B198472046FCF7E8
:103FB000A3FF00BF00000000AC5E000870B505461E
:103FC0000C4611B90026304670BD18B183690BB993
:103FD00000F03EF91F4B9C4232D16C68B4F90C30B2
:103FE000002BEFD02146284600F042F8236B06460E
:103FF00033B1216A284698470028B8BF4FF0FF36F2
:10400000A3891B0603D52169284600F071FB616B6B
:1040100041B104F14403994202D0284600F068FB04
:1040200000236363A16C21B1284600F061FB0023EB
:10403000A36400F079F90023A38100F076F9C2E7C8
:10404000054B9C4201D1AC68C8E7044B9C4208BFB9
:10405000EC68C3E76C5E00088C5E00084C5E0008EC
:10406000024B01461868FFF7A9BF00BF24000020DB
:104070008A892DE9F041054610070C4658D44B6853
:10408000002B05DC0B6C002B02DC0020BDE8F0816E
:10409000E66A002EF9D0002312F480522F68216ABC
:1040A0002B6032D0606DA3895A0705D56368C01AAA
:1040B000636B0BB1236CC01A00230246E66A216AC7
:1040C0002846B047431CA38906D129681D292BD84F
:1040D000294A0A41D60727D400226260D9042269FE
:1040E000226004D5421C01D12B6803B96065616B65
:1040F0002F600029C9D004F14403994202D0284618
:1041000000F0F6FA00206063C0E701232846B047BC
:10411000411CC8D12B68002BC5D01D2B01D0162BFC
:1041200001D12F60B1E7A38943F04003A381ADE73C
:104130000F69002FA9D093070E6808BF4B690F6065
:1041400018BF0023A6EB07088B60B8F1000F9CDDB9
:10415000216AA66A43463A462846B047002806DC4C
:10416000A38943F04003A3814FF0FF308EE707445B
:10417000A8EB0008E9E700BFFEFFBFDF38B50B6919
:1041800005460C46DBB118B183690BB900F060F845
:104190000C4B9C4209D16C68B4F90C307BB12146C0
:1041A0002846BDE83840FFF763BF074B9C4201D16A
:1041B000AC68F1E7054B9C4208BFEC68ECE70020D7
:1041C00038BD00BF6C5E00088C5E00084C5E0008C5
:1041D000002310B50446C0E90033C0E9043383600E
:1041E00081814366C2818361194608225C3000F0F8
:1041F00077FA054B6362054BA362054BE362054BFF
:104200002462236310BD00BF814D0008A34D000848
:10421000DB4D0008FF4D0008014900F071B900BFF7
:104220007D41000870B568234D1E5D430E4605F1C3
:10423000740100F0C9FA044640B10021C0E900163B
:104240000C30A06005F1680200F04AFA204670BD0B
:10425000836910B5044633BBC0E912330365124BC2
:10426000124A1B688262984204BF0123836100F0F6
:104270001FF86060204600F01BF8A060204600F0A8
:1042800017F80022E06004216068FFF7A1FFA06832
:1042900001220921FFF79CFFE06802221221FFF7AB
:1042A00097FF0123A36110BDAC5E0008194200080E
:1042B000F8B51B4B1E68B369074613B93046FFF7C4
:1042C000C7FF4836D6E90134013B03D53368DBB17B
:1042D0003668F7E7B4F90C50A5B9124B6566C4E926
:1042E0000055C4E90335C4E90555A56008222946EF
:1042F00004F15C0000F0F4F9C4E90D55C4E912556D
:104300002046F8BD6834DFE704213846FFF78AFF0E
:10431000044630600028DBD10C233B60F0E700BF8F
:10432000AC5E00080100FFFF70477047F7B50F460D
:10433000114601AA054600F0AFFE064618B9002452
:10434000204603B0F0BD2846FFF7B2FF0446002820
:10435000F5D0019A4FF4DB733946284600F0E6FBAE
:10436000002806DA0025FFF7DFFFA581FFF7DDFF54
:10437000E5E70A4B63620A4BA3620A4BE3620A4B0E
:104380002363F305E081A6812462D9D502230022AC
:104390002146284600F024F8D2E700BF814D0008EE
:1043A000A34D0008DB4D0008FF4D0008024B0A46F4
:1043B00001461868FFF7BABF240000200EB403B509
:1043C000014603AB054853F8042B0068019300F045
:1043D00099FA02B05DF804EB03B0704724000020A6
:1043E00000F000B82DE9F8430C4690461F460546FC
:1043F00018B183690BB9FFF72BFF3E4B9C4212D1DA
:104400006C68A38903F48473B3F5847F03D12146D8
:104410002846FFF7B3FED4F82C90B9F1000F0CD169
:104420001D232B6056E0344B9C4201D1AC68E8E779
:10443000324B9C4208BFEC68E3E7012F2FD037F0E6
:10444000020355D123691BB92146284600F0FAF82A
:1044500021462846FFF792FE064600283AD1216AF7
:104460003B4642462846C847013033D0616B41B1D4
:1044700004F14403994202D0284600F039F90023A0
:10448000636323692360A389002123F402636160CD
:10449000A381082204F15C0000F022F91CE021460F
:1044A0002846FFF76BFEA28912F480520CD0606D93
:1044B000A3895A0713D56368C01A636B0BB1236CC9
:1044C000C01A80440027BDE7216A3B462846C847FA
:1044D000411CEDD14FF0FF363046BDE8F8831B0795
:1044E000EFD52368002BECD022699B1A1844E8E72B
:1044F000162396E76C5E00088C5E00084C5E000890
:104500002DE9F8430646884600F148040027D4E91F
:104510000195B9F1010905D52468002CF7D1384679
:10452000BDE8F883AB89012B07D9B5F90E3001330B
:1045300003D029463046C04707436835E9E7000005
:104540002DE9F047089C8A46904602FB03F9054690
:1045500018B183690BB9FFF77BFE1D4B9C421AD142
:104560006C68A3891B0720D52369F3B100264E454B
:1045700029D0A7681AF80610013F002FA76004DAB7
:10458000A3699F4219DB0A2917D023685A1C2260AD
:1045900019700136EBE70F4B9C4201D1AC68E0E7A4
:1045A0000D4B9C4208BFEC68DBE72146284600F033
:1045B000F5FC0028DAD0002605E02246284600F067
:1045C00089FC0130E5D1B6FBF8F0BDE8F08700BF0B
:1045D0006C5E00088C5E00084C5E000807B5009316
:1045E00013460A46014603480068FFF7A9FF03B0D7
:1045F0005DF804FB2400002070B50C46B1F90E10E4
:10460000002996B015461E460DDAA38913F0800FD7
:104610004FF000010CBF4FF4806340230020316055
:104620002B6016B070BD6A4600F06CFD0028ECDB14
:10463000019901F47041A1F50053594259414FF4D9
:104640008063EBE78B8973B59D0706460C4607D55B
:1046500004F14703236023610123636102B070BD4D
:1046600001AB6A46FFF7C8FF00990546304600F0E7
:10467000ABF848B9B4F90C309A05EFD423F0030332
:1046800043F00203A381E3E70D4BB362A3892060EB
:1046900043F08003A381009B6361019B20615BB1B8
:1046A000B4F90E10304600F051FD28B1A38923F073
:1046B000030343F00103A381A3891D43A581CDE733
:1046C000194200080A44914200F1FF3300D17047BB
:1046D00010B511F8014B03F8014F9142F9D110BD0B
:1046E00002440346934200D1704703F8011BF9E7E7
:1046F00037B5002944D051F8043C0190002BA1F1BA
:104700000404B8BFE41800F0B5FD1E4A0198136810
:1047100033B96360146003B0BDE8304000F0ABBD56
:10472000A34208D9256861198B4201BF19685B68EB
:1047300049192160EDE71A465B680BB1A342FAD92B
:1047400011685518A5420BD1246821445418A3427E
:104750001160E0D11C685B6853600C441460DAE7B8
:1047600002D90C230360D6E7256861198B4204BF88
:1047700019685B68636004BF491921605460CAE727
:1047800003B030BD4430012070B50E4E0C46316888
:10479000054611B900F0C4FA30602146284600F001
:1047A000BFFA431C0AD0C41C24F00304A04207D063
:1047B000211A284600F0B4FA013001D14FF0FF343D
:1047C000204670BD483001202DE9F041CD1C25F078
:1047D000030508350C2D38BF0C25002D074601DBDD
:1047E000A94205D90C233B6000263046BDE8F08184
:1047F0002E4E00F03FFD33681C4634BB2946384638
:10480000FFF7C2FF431C04464DD134682646002EF4
:1048100040D123683146384604EB030800F080FAA3
:1048200080453AD123680335ED1A25F00305083594
:104830000C2D38BF0C2529463846FFF7A5FF01305F
:104840002BD023682B4423600EE02268521B1ED419
:104850000B2A16D96119A342256018BF59606368F5
:1048600008BF316062514B60384604F10B0600F01E
:1048700002FD26F00706231DF21AB6D09B1BA3509B
:10488000B3E76268A3420CBF32605A60ECE723468C
:104890006468B2E734467668B9E70C233B60384673
:1048A00000F0E9FCA1E72560DEE700BF443001200D
:1048B0009368013B002B10B4936008DA9469A3421B
:1048C00001DB0A2903D15DF8044B00F003BB136838
:1048D000581C1060197008465DF8044B7047F8B515
:1048E00006460F461446D518AC4201D1002007E019
:1048F00014F8011B3A463046FFF7DAFF431CF3D1A8
:10490000F8BD00002DE9F04F0D469DB014469846C5
:10491000064618B183690BB9FFF79AFC7B4B9D42A1
:1049200061D17568AB891B0767D52B69002B64D0F3
:104930000023099320238DF82930CDF80C803023F3
:10494000DFF8CC818DF82A304FF0010923469A46D2
:1049500013F8012B0AB1252AF9D1BAEB040B0BD0BD
:104960005B46224629463046FFF7B9FF013000F08A
:10497000BF80099A5A4409929AF80030002B00F03F
:10498000B78000234FF0FF32CDE905230AF1010A79
:10499000049307938DF853301A935446052214F864
:1049A000011B5B4800F0FCFB049A002830D1D006C4
:1049B00044BF20238DF85330110744BF2B238DF8BB
:1049C00053309AF800302A2B2AD0079A54460020F8
:1049D0004FF00A0C214611F8013B303B092B62D9FC
:1049E00058B3079229E04B4B9D4201D1B56899E736
:1049F000494B9D4208BFF56894E72946304600F0D0
:104A0000CDFA002894D04FF0FF301DB0BDE8F08FF4
:104A1000A0EB080309FA03F313430493A246BCE78F
:104A2000039B191D1B680391002BBBBF5B4242F027
:104A3000020207930793B8BF049223782E2B0CD160
:104A400063782A2B34D1039B1A1D1B680392002B19
:104A5000B8BF4FF0FF3302340593DFF8CCA02178C4
:104A60000322504600F09CFB38B1049BA0EB0A00E7
:104A70004022824013430134049314F8011B274859
:104A80008DF82810062200F08BFB002835D0244B2F
:104A90001BBB039B073323F0070308330393099BD6
:104AA0003B44099352E70CFB02320C46012091E78C
:104AB00000230134059319464FF00A0C204610F8E4
:104AC000012B303A092A03D9002BC6D00591C4E73F
:104AD0000CFB012104460123F0E703AB00932A46B7
:104AE000104B04A93046AFF30080421C0746D6D1D4
:104AF000AB895B0687D4099887E703AB00932A4606
:104B0000084B04A9304600F0ADFDEEE76C5E0008EE
:104B1000B05E00088C5E00084C5E0008BA5E0008BB
:104B200000000000DF480008B65E000838B5074DF9
:104B300004460846114600222A601A46FCF726FC65
:104B4000431C02D12B6803B1236038BD1001002043
:104B50000FB40A4B13B51C6824B1A36913B92046DE
:104B6000FFF776FB05AB049AA16801932046FFF797
:104B7000C9FE02B0BDE8104004B070472400002018
:104B800070B50E46054618B183690BB9FFF760FB97
:104B9000AB69AC6813B92846FFF75AFB234B9C421C
:104BA00017D16C68A3891B071DD52369DBB1013EB2
:104BB000A36816F8011F013BA360E9B9002B2EDAA8
:104BC00022460A21284600F085F9013011D00A203A
:104BD00011E0174B9C4201D1AC68E3E7154B9C42B6
:104BE00008BFEC68DEE72146284600F0D7F9002828
:104BF000DDD04FF0FF3070BD002B04DAA2699A427D
:104C000006DC0A2904D023685A1C22601970CFE7F9
:104C10002246284600F05EF90130C9D1E9E7236851
:104C20000A205A1C22601870E5E700BF6C5E00087D
:104C30008C5E00084C5E0008024B01461868FFF7C6
:104C40009FBF00BF2400002038B5104B1D68AB6B20
:104C50000446B3B9182000F09BFA0246A86320B9B5
:104C60000B4B0C484221FCF7B1F80B490B4BC0E948
:104C700000130B4B83600B23838100210120C2E9C9
:104C80000401AB6B00221C615A6138BD2400002076
:104C9000C15E0008D85E00080E33CDAB34126DE65D
:104CA000ECDE0500164B10B51C68A36BB3B91820D9
:104CB00000F06EFA0246A06320B9124B12484E2152
:104CC000FCF784F81149124BC0E90013114B8360C3
:104CD0000B23838100210120C2E90401A16B0E484E
:104CE0000B694C690D4A584302FB0400A3FB0232D6
:104CF000013340EB0200C1E9043020F0004010BD58
:104D000024000020C15E0008D85E00080E33CDAB41
:104D100034126DE6ECDE05002DF451582D7F954CD4
:104D200038B5064D0023044608462B60FCF774F89E
:104D3000431C02D12B6803B1236038BD1001002051
:104D40000EB400B59CB01DAB029006906FF0004110
:104D5000094807910491094953F8042B059100680B
:104D6000019302A900F012FB029B00221A701CB0F2
:104D70005DF804EB03B07047240000200802FFFF39
:104D800010B50C46B1F90E1000F08EFD0028ABBF37
:104D9000636DA3891B1823F48053ACBF6365A381A3
:104DA00010BD2DE9F0411F468B89DB0505460C46F9
:104DB000164605D5B1F90E100223002200F0D6F9EF
:104DC000A389B4F90E1023F48053A38132463B46E5
:104DD0002846BDE8F04100F0CFB810B50C46B1F957
:104DE0000E1000F0C3F9431CA38915BF606523F4BE
:104DF000805343F48053A38118BFA38110BDB1F940
:104E00000E1000F039B910F8012B11F8013B012AFE
:104E100028BF9A42F7D0D01A7047034613F8012BE7
:104E2000002AFBD1181A0138704700001FB50B4B40
:104E3000002269460446186800F076F90028BEBFD3
:104E40004FF0FF324FF0FF33CDE90023DDE90001E1
:104E50000CB1C4E9000104B010BD00BF2400002063
:104E600030B51446002C9BB005461A4605DA8B2354
:104E700003604FF0FF301BB030BD4FF40273ADF84C
:104E80000C3014BF04F1FF332346029305934FF611
:104E9000FF7300910491ADF80E3069461E9B00F03F
:104EA00075FA431CBCBF8B232B60002CE3D0009B06
:104EB00000221A70DFE7000007B5009313460A4688
:104EC000014603480068FFF7CBFF03B05DF804FB21
:104ED00024000020F8B50E461446054618B1836933
:104EE0000BB9FFF7B5F9214B9C422BD16C68A36934
:104EF000A360A3891A072FD523696BB323692068A0
:104F0000C01A6369F6B28342374604DC214628465C
:104F1000FFF734F930BBA368013BA36023685A1C38
:104F200022601E7063690130834204D0A389DB07CD
:104F300006D50A2E04D121462846FFF71FF988B965
:104F40003846F8BD0A4B9C4201D1AC68CFE7094B0B
:104F50009C4208BFEC68CAE72146284600F01EF8CC
:104F60000028CBD04FF0FF37EAE700BF6C5E0008A7
:104F70008C5E00084C5E000838B5074D04460846B4
:104F8000114600222A601A46FCF704F9431C02D19C
:104F90002B6803B1236038BD10010020324B70B57F
:104FA0001D6806460C4625B1AB6913B92846FFF7C4
:104FB0004FF92E4B9C420FD16C68A389B4F90C2099
:104FC00019072CD4DD0611D40923336042F04003C5
:104FD000A3814FF0FF303EE0254B9C4201D1AC68ED
:104FE000EBE7244B9C4208BFEC68E6E7580712D574
:104FF000616B41B104F14403994202D03046FFF79E
:1050000077FB00236363A38923F02403A381002398
:10501000636023692360A38943F00803A3812369A4
:105020004BB9A38903F42073B3F5007F03D0214665
:105030003046FFF707FBA089B4F90C2010F00103FC
:105040000AD00023A36063695B42A361236943B96B
:1050500010F08000BAD170BD810758BF6369A360AA
:10506000F4E70020F7E700BF240000206C5E000892
:105070008C5E00084C5E000838B5064D00230446DF
:1050800008462B60FCF7B8F8431C02D12B6803B12B
:10509000236038BD100100200B78722B30B522D070
:1050A000772B24D0612B27D016230360002030BD3E
:1050B000622D12D0782D13D02B2D07D120F01C009B
:1050C00023F0030340F0100043F0020311F8015FE6
:1050D000002DEDD123431360E9E743F48033F5E776
:1050E00043F40063F2E7002423460420EEE74FF484
:1050F000C06401230820E9E74FF4027401234FF450
:105100008470E3E738B5074D00230446084611468E
:105110002B60FCF7B7F8431C02D12B6803B1236066
:1051200038BD00BF1001002038B5074D00230446EC
:10513000084611462B60FCF732F9431C02D12B685C
:1051400003B1236038BD00BF1001002038B5064D03
:105150000023044608462B60FCF735F9431C02D1B6
:105160002B6803B1236038BD1001002038B5074D0E
:1051700004460846114600222A601A46FBF7F6FF4D
:10518000431C02D12B6803B1236038BD10010020FD
:10519000024B01461868FFF717BB00BF2400002030
:1051A00001F0FF01102A2BDB10F0070F08D010F8D8
:1051B000013B013A8B422DD010F0070F42B3F6D1DC
:1051C000F0B441EA012141EA014122F007047FF0F5
:1051D00000070023F0E80256083C85EA010586EA4C
:1051E000010685FA47F5A3FA87F586FA47F6A5FA88
:1051F00087F68EB9EED1F0BC01F0FF0102F0070294
:1052000032B110F8013B013A83EA010313B1F8D13E
:105210000020704701387047002D06BF354603381F
:10522000073815F0010F07D1013015F4807F02BF58
:10523000013015F4C03F0130F0BC0138704700BFA9
:10524000884210B501EB020402D98442234607D8F4
:10525000431EA14208D011F8012B03F8012FF8E7F3
:10526000024401468A4200D110BD13F8014D02F8F4
:10527000014DF7E7704770472DE9F041804614462D
:105280000E4621B9BDE8F0411146FFF79DBA2AB993
:10529000FFF72EFA25462846BDE8F08100F016FB00
:1052A0008442074602D8B4EB500F12D8214640463C
:1052B000FFF78AFA05460028EDD0BC422246314667
:1052C00028BF3A46FFF7FEF931464046FFF710FA8D
:1052D000E1E73546DFE72DE9F0478E681F46BE421D
:1052E0000B6882460C4690462CD88A8912F4906F3F
:1052F00026D06569096905EB4505A3EB010905EBB6
:10530000D5757B1C4B446D109D4238BF1D4653051F
:1053100027D52946FFF758FA064660B321694A4661
:10532000FFF7D0F9A38923F4906343F08003A381AE
:10533000266165614E44A5EB09052660A5603E46E1
:10534000BE4200D93E46206832464146FFF778FF0C
:10535000A3689B1BA3602368334423600020BDE83F
:10536000F0872A46FFF788FF06460028E0D121692A
:105370005046FFF7BDF90C23CAF80030A38943F06B
:105380004003A3814FF0FF30E9E700002DE9F04F23
:1053900098468B891B069DB007460D4614460ED5D0
:1053A0000B6963B94021FFF70FFA2860286120B923
:1053B0000C233B604FF0FF30D0E040236B610023B3
:1053C000099320238DF82930CDF80C803023DFF8A5
:1053D000A4818DF82A304FF0010923469A4613F82C
:1053E000012B0AB1252AF9D1BAEB040B0BD05B468D
:1053F000224629463846FFF76EFF013000F0A980AB
:10540000099A5A4409929AF80030002B00F0A180C2
:1054100000234FF0FF32CDE905230AF1010A04937E
:1054200007938DF853301A935446052214F8011B44
:105430005048FFF7B5FE049AD8B9D00644BF2023E0
:105440008DF85330110744BF2B238DF853309AF851
:1054500000302A2B15D0079A544600204FF00A0C32
:10546000214611F8013B303B092B4DD9B0B10792D1
:1054700014E0A0EB080309FA03F313430493A246D4
:10548000D2E7039B191D1B680391002BBBBF5B4236
:1054900042F0020207930793B8BF049223782E2BA1
:1054A0000CD163782A2B34D1039B1A1D1B680392FD
:1054B000002BB8BF4FF0FF3302340593DFF8C4A0D0
:1054C000217803225046FFF76BFE38B1049BA0EB16
:1054D0000A004022824013430134049314F8011B54
:1054E00025488DF828100622FFF75AFE002838D0EC
:1054F000224B1BBB039B073323F0070308330393A3
:10550000099B3344099368E70CFB02320C460120E7
:10551000A6E700230134059319464FF00A0C2046F4
:1055200010F8012B303A092A03D9002BC6D0059177
:10553000C4E70CFB012104460123F0E703AB009311
:105540002A460F4B04A93846AFF30080421C06469A
:10555000D6D1AB895B063FF52DAF09981DB0BDE8EC
:10556000F08F03AB00932A46054B04A9384600F0A0
:1055700079F8EBE7B05E0008BA5E000800000000B2
:10558000D7520008B65E00082DE9F0471646994646
:105590008A680B69DDF820809342B8BF13463360F8
:1055A00091F8432007460C460AB101333360236863
:1055B000990642BF336802333360256815F006054B
:1055C00006D104F1190AE36832689B1AAB4226DC63
:1055D00094F84320131E226818BF012392062BD48F
:1055E00004F1430249463846C04701301ED02368C3
:1055F000226903F00603042B02BFE5683368ED1A45
:10560000A3680CBF25EAE57500259342C4BF9B1A29
:10561000ED1800261A34B5421AD1002008E0012303
:10562000524649463846C047013003D14FF0FF305B
:10563000BDE8F0870135C6E7E1185A1C302081F833
:105640004300224494F8451082F843100233C7E720
:105650000123224649463846C0470130E6D001368C
:10566000D9E700002DE9FF470F7E0C9D782F91466A
:1056700080460C469A4601F1430207D8622F0AD8A9
:10568000002F00F0D480582F00F0C08004F14205B4
:1056900084F842703AE0A7F16303152BF6D801A114
:1056A00051F823F0FD560008115700088D560008E8
:1056B0008D5600088D5600088D56000811570008B9
:1056C0008D5600088D5600088D5600088D5600082E
:1056D000155800083D570008CF5700088D560008A0
:1056E0008D560008375800088D5600083D570008B1
:1056F0008D5600088D560008D75700082B681A1DD4
:105700001B682A6004F1420584F8423001239FE0BF
:1057100020682B68070603F10401296001D51E6883
:1057200003E04606FBD5B3F90060002E03DA2D2313
:10573000764284F843305A480A2312E02B682068E6
:10574000191D2960050601D51E6802E04106FBD53A
:105750001E8853486F2F0CBF08230A23002184F8AA
:1057600043106568A560002DA2BF216821F00401E7
:1057700021600EB9002D4BD01546B6FBF3F103FBAB
:105780001167C75D05F8017D3746BB420E46F4D967
:10579000082B0BD12368DE0708D52369616899427D
:1057A000DEBF302305F8013C05F1FF35521B2261B5
:1057B000CDF800A04B4603AA21464046FFF7E4FE81
:1057C00001304AD14FF0FF3004B0BDE8F0872368C4
:1057D00043F0200323603348782784F8457023681A
:1057E00029681F0651F8046B02D45F0648BFB6B2A1
:1057F000DF0748BF43F02003296048BF23601EB97C
:10580000236823F0200323601023A7E72448E4E75C
:105810001546BDE72B6826686169181D28603506A6
:105820001B6801D5196002E07006FBD519800023C2
:1058300023611546BCE72B681A1D2A601D68626843
:1058400000212846FFF7ACFC08B1401B606063688C
:105850002361002384F84330AAE723692A46494696
:105860004046D0470130ADD023689B0713D4E06891
:10587000039B9842B8BF1846A6E701233246494623
:105880004046D04701309DD00135E36803995B1A4B
:10589000AB42F2DCEBE7002504F11906F5E700BFA7
:1058A000435F0008545F000838B5074D04460846BA
:1058B000114600222A601A46FBF7F2FB431C02D174
:1058C0002B6803B1236038BD1001002051F8043C5F
:1058D000181F002BBCBF0B58C01870472E2E2F73FB
:1058E000797374656D2F7372632F73746D333266C1
:1058F000342D68616C2F73746D3332663478785F41
:1059000068616C5F636F727465782E6300000000DD
:105910002E2E2F73797374656D2F7372632F7374CA
:105920006D333266342D68616C2F73746D3332665B
:105930003478785F68616C5F7263632E6300000087
:105940002C2066756E6374696F6E3A20000000004B
:10595000617373657274696F6E20222573222066ED
:1059600061696C65643A2066696C65202225732242
:105970002C206C696E65202564257325730A000050
:1059800061626F727428292C2065786974696E676A
:105990002E2E2E003A747400537461636B2066726D
:1059A000616D653A0A000000205230203D2020251C
:1059B0003038580A00000000205231203D202025B8
:1059C0003038580A00000000205232203D202025A7
:1059D0003038580A00000000205233203D20202596
:1059E0003038580A0000000020523132203D202576
:1059F0003038580A00000000204C52203D2020255D
:105A00003038580A00000000205043203D20202557
:105A10003038580A0000000020505352203D202505
:105A20003038580A000000004653522F4641523A7F
:105A30000A0000002043465352203D2020253038E4
:105A4000580A00002048465352203D202025303877
:105A5000580A00002044465352203D20202530386B
:105A6000580A00002041465352203D20202530385E
:105A7000580A0000204D4D464152203D2025303827
:105A8000580A00002042464152203D20202530384F
:105A9000580A00004D6973630A000000204C522F21
:105AA0004558435F52455455524E3D202530385895
:105AB0000A0000005B486172644661756C745D0A9F
:105AC000000000005B4275734661756C745D0A00EE
